:1000000009C021C020C01FC01EC01DC064C01BC0CD
:100010001AC0F7C011241FBECFE9CDBF10E0A0E683
:10002000B0E0E8EAF3E002C005900D92A437B10712
:10003000D9F720E0A4E7B0E001C01D92A538B207CF
:10004000E1F70FD1AFC1DCCF209183003091840064
:100050008091600090916100821B930B1816190625
:100060005CF49C0183E0359527958A95E1F721158D
:10007000310531F0C901089565E070E082D108953D
:1000800081E090E0089580937D00882389F0B89AFC
:10009000823061F0833021F0813059F4C09A0895A4
:1000A00082E3C09AC0988150E1F702C0C0980895D9
:1000B000B898089520917C0090917D00222331F022
:1000C00010927C00992329F080E003C0933011F452
:1000D00083E0D9CF08951F920F920FB60F9211248B
:1000E0002F933F934F935F936F937F938F939F9340
:1000F000AF93BF93EF93FF9380917F009091800027
:10010000A0918100B09182000196A11DB11D809344
:100110007F0090938000A0938100B0938200809133
:100120007F0090918000A0918100B091820091FFAA
:100130000DC08ADF22273327281B390B3093770025
:1001400020937600909375008093740080917F00D7
:1001500090918000A0918100B09182009C012F7746
:10016000332740917600509177002417350714F417
:10017000C19A01C0C1984091740050917500241734
:10018000350714F4C49A01C0C49820917B0022233F
:1001900029F0C59B02C0C59801C0C59A8F709927E8
:1001A000892BA9F4809178008F5F8093780081E09B
:1001B000809379009091780094FD80937C009091D9
:1001C000780080917A00981302C010927B00FF9112
:1001D000EF91BF91AF919F918F917F916F915F91BF
:1001E0004F913F912F910F900FBE0F901F90189538
:1001F00090917800890F80937A0081E080937B0052
:1002000008951F920F920FB60F9211242F933F93D0
:100210004F935F936F937F938F939F9324B145B1D7
:10022000809183009091840030E0342B6FE170E086
:10023000A8D0820F931F25E0969587952A95E1F720
:1002400090938400809383009F918F917F916F9111
:100250005F914F913F912F910F900FBE0F901F9084
:10026000189587B3826387BBC39A82E08FBD83BF33
:1002700085E786BF84E089BF81E087B98FEF86B9C3
:1002800013B8A29A789410E0C0E0D0E000E0FF2418
:10029000FA94EE24E39480917900882379F1809197
:1002A0007E0090916200B39B10C02D97CB36D10594
:1002B00000F581111EC0992319F01092620002C04E
:1002C000E092620085E094DF14C02196C937D10521
:1002D00098F0011111C0923078F4882319F010922F
:1002E0007E0003C0F0927E0010E084E181DF0FEF1A
:1002F00003C0C0E0D0E000E01092790080917E0061
:10030000E0916200882389F1F0E0EE0FFF1FEE0F0D
:10031000FF1FE10FF11DEE0FFF1FED59FF4F808111
:1003200091819093610080936000209183003091CF
:100330008400113061F018F0123071F0ACCF8217E8
:10034000930711F411E0A7CF81E09DDEA4CF8217BF
:10035000930781F412E09FCF8217930769F482E03C
:1003600092DE8EE145DF13E096CFEE2319F0E13007
:1003700019F004C081E003C082E001C083E09ADE8E
:100380008ACF0024552704C0080E591F880F991FD3
:10039000009729F076956795B8F37105B9F7802D28
:0803A000952F0895F894FFCF9A
:1003A8005802029502680271027102890262026BA8
:0403B800026B0200D2
:00000001FF
